:1000000015C0BDC1BCC1BBC1BAC1B9C1B8C1B7C1BE
:10001000B6C1B5C100600068800068007200038846
:100020000072007A80007A007C00039211241FBEC7
:10003000CFE9CDBFE4E1F0E040E017C0B591A59174
:1000400035912591059107FD0CC095918591EF01A2
:10005000F92FE82F05900D92A217B307D9F7FE01EB
:1000600004C01D92A217B307E1F7EC32F40731F791
:0800700003D07EC1F894FFCF1C
:10007800109264001092650010926600109267005A
:1000880018BA8AE087BB2FEF37E98AE3215030405E
:100098008040E1F700C0000055D109C09FEF29EC6E
:1000A80038E0915020403040E1F700C0000054D1C2
:1000B8008F3591059CF380E69DE3A8E0B0E080933E
:1000C800640090936500A0936600B093670088EC85
:1000D8009FEAA0E0B0E08093600090936100A09355
:1000E8006200B093630088EC9FEA90937B00809352
:1000F8007A0088B3826088BB17C180916C009091A8
:100108006D00A0916E00B0916F000197A109B1092F
:1001180080936C0090936D00A0936E00B0936F0075
:10012800409168005091690060916A0070916B007D
:100138004150510961097109409368005093690061
:1001480060936A0070936B00452B462B472B69F52B
:100158004091740050917500509373004093720061
:1001680026B3207130E030937500209374000F2E71
:10017800F2E3CF2ED12CE12CF12CF02DC0926800A7
:10018800D0926900E0926A00F0926B00452B69F406
:100198002031310551F420917000309171002F5FAA
:1001A8003F4F3093710020937000892B8A2B8B2B43
:1001B800D9F580E298EBA8E1B0E080936C009093C9
:1001C8006D00A0936E00B0936F00809170009091C5
:1001D800710089359B4140F01092710010927000B7
:1001E80088B3826088BB20C088B38D7F88BB3FEF0F
:1001F80087EF94E221E03150804090402040D9F7C9
:1002080000C0000088B3826088BB3FEF83EB94ECAA
:1002180024E03150804090402040D9F700C00000D1
:10022800109271001092700097D09093790080938B
:1002380078008436910508F46EC086B38170C82FA3
:1002480030E0D32FD0937700C0937600CD2BD9F52B
:1002580088EC9FEAA0E0B0E0809360009093610092
:10026800A0936200B0936300809164009091650050
:10027800A0916600B091670088399D48A740B105F4
:1002880018F488B3886088BB8091640090916500F9
:10029800A0916600B09167000097A105B10539F4F7
:1002A80088EC9FEA90937B0080937A003DC0019789
:1002B800A109B1098093640090936500A09366003A
:1002C800B093670031C080E69DE3A8E0B0E080937A
:1002D800640090936500A0936600B09367008091D6
:1002E800600090916100A0916200B0916300009756
:1002F800A105B10521F488B3877F88BB15C0019794
:10030800A109B1098093600090936100A0936200F5
:10031800B093630009C080917A0090917B000197A7
:1003280090937B0080937A0080917A0090917B0073
:10033800892B09F0E2CE88B3877F88BB88B38D7F8D
:0403480088BBB5CEEB
:10034C0087B1816087B987B18F7D87B986B186689F
:04035C0086B90895C1
:1003600086B1806486B93699FECF84B195B108957F
:0E037000EC0107D005D0CE0105D0CE0104D09F
:02037E0040CE6F
:020380000895DE
:020382000895DC
:020384000895DA
:0203860076DE21
:04038800320000003F
:04038C0020B818007D
:020390008813D0
:02039200C8AFF2
:00000001FF
