:1000000012C05CC15BC15AC159C158C157C156C168
:1000100055C154C10060007080007000740002BEC1
:1000200000740076800011241FBECFE9CDBFE4E14B
:10003000F0E040E017C0B591A5913591259105916B
:1000400007FD0CC095918591EF01F92FE82F0590E0
:100050000D92A217B307D9F7FE0104C01D92A21793
:10006000B307E1F7E532F40731F703D000C0F894A5
:02007000FFCFC0
:1000720010926C0010926D0010926E0010926F0040
:1000820018BA8AE087BB2FEF87E99AE321508040B4
:100092009040E1F700C00000FED009C02FEF8BE4D2
:1000A2009DE1215080409040E1F700C00000FDD06A
:1000B2008497A4F380E69DE3A8E0B0E080936C000F
:1000C20090936D00A0936E00B0936F0088EC9FEA4E
:1000D200A0E0B0E08093680090936900A0936A006A
:1000E200B0936B008093700090937100A0937200A4
:1000F200B0937300BBC08091640090916500A091A1
:100102006600B09167008093600090936100A093B5
:100112006200B0936300C9D0092E000CAA0BBB0B7E
:100122008093640090936500A0936600B09367008B
:100132008297A105B1050CF486C080916000909170
:100142006100A0916200B09163008297A105B105A0
:100152000CF479C086B3817080937400109275009C
:1001620088B3826088BB8091740090917500892B5E
:1001720009F041C088EC9FEAA0E0B0E080936800FB
:1001820090936900A0936A00B0936B0080916C0019
:1001920090916D00A0916E00B0916F0088399D48DA
:1001A200A740B1051CF488B3886088BB80916C00BD
:1001B20090916D00A0916E00B0916F000097A10523
:1001C200B10569F488EC9FEAA0E0B0E0809370008A
:1001D20090937100A0937200B093730047C001978F
:1001E200A109B10980936C0090936D00A0936E00F9
:1001F200B0936F003BC080E69DE3A8E0B0E080933F
:100202006C0090936D00A0936E00B0936F0080918C
:10021200680090916900A0916A00B0916B0000970C
:10022200A105B10521F488B3877F88BB1FC0019760
:10023200A109B1098093680090936900A0936A00B4
:10024200B0936B0013C08091700090917100A091E7
:100252007200B09173000197A109B10980937000F7
:1002620090937100A0937200B0937300809170001C
:1002720090917100A0917200B09173001816190646
:100282001A061B060CF437CF88B3877F88BB88B366
:060292008D7F88BB0CCF3C
:1002980087B1816087B987B1806287B986B186687E
:0402A80086B9089576
:1002AC0086B1806486B93699FECF85B190E0089509
:0202BC00A1CED1
:0402BE00C8AF0000C5
:00000001FF
