:1000000009C021C020C01FC01EC01DC01CC01BC015
:100010001AC019C011241FBECFE9CDBF10E0A0E661
:10002000B0E0E8E4F2E002C005900D92A436B1071A
:10003000D9F720E0A4E6B0E001C01D92A037B207D6
:10004000E1F70ED0FFC0DCCF389A3D9A86B18668C2
:1000500086B90895369A3699FECF85B190E0089515
:1000600018BA8BE187BB2FEF3BE48DE12150304084
:100070008040E1F700C00000E7DF81E388BB9FEF2D
:100080002BE43DE1915020403040E1F700C00000FA
:1000900090E398BB9FEF2BE43DE19150204030402E
:1000A000E1F700C0000088BB0F2EF0EA7F2EF02D94
:1000B0000F2EF6E8CF2EF02DDD24D394E12C0F2E59
:1000C000F1E1FF2EF02D0F2EF2E15F2EF02D0F2E1D
:1000D000FAE16F2EF02D0F2EF8EE8F2EF3E09F2E0B
:1000E000A12CB12CF02D072D1C2DDD2DCE2D01C006
:1000F00018BAB0DF4197E4F370926000C0926100DB
:10010000D0926200E092630078C080916C00909180
:100110006D00A0916E00B0916F0080936800909385
:100120006900A0936A00B0936B0094DF092E000C65
:10013000AA0BBB0B80936C0090936D00A0936E0094
:10014000B0936F004197A105B105DCF18091680083
:1001500090916900A0916A00B0916B004197A10550
:10016000B1050CF44AC00093600010936100D09375
:100170006200C09363008091640090916500A0913B
:100180006600B09167000097A105B10571F4F8BA57
:1001900080916C0090916D00A0916E00B0916F0005
:1001A0004197A105B1054CF50CC00197A109B10912
:1001B0008093640090936500A0936600B0936700FD
:1001C0001CC08091600090916100A0916200B0918C
:1001D00063000197A109B1098093600090936100C9
:1001E000A0936200B09363008092640090926500D7
:1001F000A0926600B092670058BA8091600090911A
:100200006100A0916200B0916300181619061A06E9
:100210001B060CF47ACF68BA8FEF95E32EE631E037
:100220008150904020403040D9F700C0000018BAFB
:100230008FEF97E92AE3815090402040E1F700C01A
:08024000000057CFF894FFCF36
:04024800A08601008B
:00000001FF
