S015000052657370616C646F56352E32342E73726563B6
S113000009C021C020C01FC01EC01DC01CC01BC011
S11300101AC019C011241FBECFE9CDBF10E0A0E65D
S1130020B0E0E0E5F2E002C005900D92A436B1071D
S1130030D9F720E0A4E6B0E001C01D92A037B207D2
S1130040E1F70ED003C1DCCF389A3D9886B18668BB
S113005086B90895369A3699FECF84B195B108953C
S113006018BA8BE187BB2FEF3BE48DE12150304080
S11300708040E1F700C00000E7DF81E388BB9FEF29
S11300802BE43DE1915020403040E1F700C00000F6
S113009090E398BB9FEF2BE43DE19150204030402A
S11300A0E1F700C0000088BB0F2EF0EA7F2EF02D90
S11300B00F2EF6E8CF2EF02DDD24D394E12C0F2E55
S11300C0F1E1FF2EF02D0F2EF2E15F2EF02D0F2E19
S11300D0FAE16F2EF02D0F2EF8EE8F2EF3E09F2E07
S11300E0A12CB12CF02D072D1C2DDD2DCE2D01C002
S11300F018BAB0DF88379105DCF370926000C092C3
S11301006100D0926200E09263007BC080916C0039
S113011090916D00A0916E00B0916F008093680083
S113012090936900A0936A00B0936B0093DF092E4B
S1130130000CAA0BBB0B80936C0090936D00A093F2
S11301406E00B0936F008A379105A105B105ECF1FB
S11301508091680090916900A0916A00B0916B0051
S11301608A379105A105B1050CF44BC000936000DA
S113017010936100D0936200C09363008091640087
S113018090916500A0916600B09167000097A10569
S1130190B10579F4F8BA80916C0090916D00A0914A
S11301A06E00B0916F008A379105A105B1054CF539
S11301B00CC00197A109B109809364009093650074
S11301C0A0936600B09367001CC08091600090917A
S11301D06100A0916200B09163000197A109B10987
S11301E08093600090936100A0936200B0936300D9
S11301F08092640090926500A0926600B0926700BD
S113020058BA8091600090916100A0916200B09111
S11302106300181619061A061B060CF477CF68BA81
S11302208FEF95E32EE631E081509040204030403E
S1130230D9F700C0000018BA8FEF97E92AE381507C
S113024090402040E1F700C0000053CFF894FFCF66
S1070250A08601007F
S9030000FC
