:1000000017C041C140C13FC13EC13DC13CC13BC120
:100010003AC139C1007000728000600064800064E1
:100020000068800068006C80006C0070000288002E
:1000300011241FBECFE9CDBFE4E1F0E040E017C0DE
:10004000B591A59135912591059107FD0CC095912C
:100050008591EF01F92FE82F05900D92A217B307B4
:10006000D9F7FE0104C01D92A217B307E1F7EF32E2
:0C007000F40731F703D000C0F894FFCF74
:10007C0018BA8AE087BB2FEF87E99AE321508040BA
:10008C009040E1F700C00000ECD06894662467F85B
:10009C000F2EFBEC7F2EF02D0F2EF4EA5F2EF02DA1
:1000AC00412C11E00F2EF0ECCF2EFAE7DF2EF0E111
:1000BC00EF2EF12CF02D862C972CA52CB42C00E0D7
:1000CC0086B3817080937000109271000FC086B35C
:1000DC00817080937000109271002FEF8BE49DE182
:1000EC00215080409040E1F700C00000C0D08197C3
:1000FC0074F38091700090917100019741F310920C
:10010C0068001092690010926A0010926B00609265
:10011C006C0070926D0050926E0040926F0090C017
:10012C008091640090916500A0916600B091670089
:10013C008093600090936100A0936200B093630081
:10014C0096D0092E000CAA0BBB0B809364009093E5
:10015C006500A0936600B0936700212F409160006A
:10016C005091610060916200709163004F315105B4
:10017C00610571050CF4202F222309F453C0212FA3
:10018C004F97A105B1050CF4202F222309F44AC086
:10019C0086B38170C82F20E0D22FD0937100C0930A
:1001AC007000CD2B19F58091680090916900A09199
:1001BC006A00B0916B000097A105B10559F48092CB
:1001CC006C0090926D00A0926E00B0926F00C39A7A
:1001DC00C19A28C00197A109B10980936800909336
:1001EC006900A0936A00B0936B001CC0C398C092C6
:1001FC006800D0926900E0926A00F0926B008091E6
:10020C006C0090916D00A0916E00B0916F00019701
:10021C00A109B10980936C0090936D00A0936E00BE
:10022C00B0936F008091640090916500A09166007E
:10023C00B09167008197A105B10514F4C398C198DA
:10024C0080916C0090916D00A0916E00B0916F0048
:10025C00181619061A061B060CF462CFC398C1981F
:02026C002FCF92
:0C026E00389A3D9A86B1866886B90895DA
:0C027A00369A3699FECF85B190E00895C9
:02028600BCCEEC
:0402880080CBA40083
:00000001FF
