:1000000009C021C020C01FC01EC01DC01CC01BC015
:100010001AC019C011241FBECFE9CDBF10E0A0E661
:10002000B0E0E2E5F2E002C005900D92A436B1071F
:10003000D9F720E0A4E6B0E001C01D92A037B207D6
:10004000E1F70ED004C1DCCF389A3D9A86B18668BC
:1000500086B90895369A3699FECF85B190E0089515
:1000600080E288BB8BE387BB2FEF3BE48DE121501F
:1000700030408040E1F700C00000E6DF81E388BB4C
:100080009FEF2BE43DE1915020403040E1F700C06C
:10009000000090E398BB9FEF2BE43DE1915020409E
:1000A0003040E1F700C0000088BB0F2EF0EA6F2E51
:1000B000F02D0F2EF6E87F2EF02DCC24C394D12CFA
:1000C0000F2EF1E1FF2EF02D0F2EF3E13F2EF02D3C
:1000D0000F2EFAE14F2EF02D6894EE24E5F855240A
:1000E00053940F2EF8EE8F2EF3E09F2EA12CB12CFF
:1000F000F02D062D172DDC2DCD2D01C0E8BAAADF7D
:100100008197E4F36092600070926100C092620097
:10011000D092630076C080916C0090916D00A091A8
:100120006E00B0916F008093680090936900A09377
:100130006A00B0936B008EDF092E000CAA0BBB0B7C
:1001400080936C0090936D00A0936E00B0936F004D
:100150008097A105B1056CF18091680090916900CC
:10016000A0916A00B0916B008097A105B1050CF1D8
:100170000093600010936100D0936200C09363000D
:100180008091640090916500A0916600B091670035
:100190000097A105B10511F4F8BA0BC00197A109A8
:1001A000B1098093640090936500A0936600B093BA
:1001B000670080916C0090916D00A0916E00B091ED
:1001C0006F004F97A105B105E4F480916000909114
:1001D0006100A0916200B09163000197A109B1098B
:1001E0008093600090936100A0936200B0936300DD
:1001F0008092640090926500A0926600B0926700C1
:1002000038BA8091600090916100A0916200B09135
:100210006300181619061A061B060CF47CCF48BAA0
:100220008FEF95E32EE631E0815090402040304042
:10023000D9F700C00000E8BA8FEF97E92AE38150B0
:1002400090402040E1F700C0000058BA58CFF89421
:02025000FFCFDE
:04025200A086010081
:00000001FF
