:1000000009C021C020C01FC01EC01DC01CC01BC015
:100010001AC019C011241FBECFE9CDBF10E0A0E661
:10002000B0E0E0E4F2E002C005900D92A436B10722
:10003000D9F720E0A4E6B0E001C01D92A037B207D6
:10004000E1F70ED0FBC0DCCF389A3D9A86B18668C6
:1000500086B90895369A3699FECF85B190E0089515
:1000600080E288BB8BE387BB2FEF33E284EF90E025
:100070002150304080409040D9F700C00000E4DFBC
:100080000F2EF1E34F2EF02D0F2EF1E1FF2EF02D6C
:100090006894772477F80F2EF8E3CF2EF02DDD2427
:1000A000D394E12C0F2EF3E12F2EF02D0F2EF0ED37
:1000B0008F2EF7E09F2EA12CB12CF02D072D1C2D9B
:1000C000DD2DCE2D0F2EFAE15F2EF02D68946624E3
:1000D00065F833243394BEDF8197ECF348BA2FEFF1
:1000E0003FE285E7215030408040E1F700C000004A
:1000F000F8BA70926000C0926100D0926200E09203
:10010000630076C080916C0090916D00A0916E00AC
:10011000B0916F008093680090936900A0936A008B
:10012000B0936B0097DF092E000CAA0BBB0B8093DA
:100130006C0090936D00A0936E00B0936F00809759
:10014000A105B1056CF18091680090916900A091C2
:100150006A00B0916B008097A105B1050CF1009386
:10016000600010936100D0936200C093630080919F
:10017000640090916500A0916600B09167000097BF
:10018000A105B10511F4F8BA0BC00197A109B10995
:100190008093640090936500A0936600B09367001D
:1001A00080916C0090916D00A0916E00B0916F00F5
:1001B0004F97A105B105E4F4809160009091610032
:1001C000A0916200B09163000197A109B1098093E9
:1001D000600090936100A0936200B09363008092EE
:1001E000640090926500A0926600B092670028BA01
:1001F0008091600090916100A0916200B0916300D5
:10020000181619061A061B060CF47CCF58BA9FEF75
:1002100025E33EE681E09150204030408040D9F710
:1002200000C0000068BA9FEF27E93AE391502040F0
:100230003040E1F700C0000038BA4DCFF894FFCF4E
:040240008038010001
:00000001FF
