:1000000015C0C4C1C3C1C2C1C1C1C0C1BFC1BEC18D
:10001000BDC1BCC10060006880006800720003962A
:100020000072007A80007A007C0003A011241FBEB9
:10003000CFE9CDBFE4E1F0E040E017C0B591A59174
:1000400035912591059107FD0CC095918591EF01A2
:10005000F92FE82F05900D92A217B307D9F7FE01EB
:1000600004C01D92A217B307E1F7EC32F40731F791
:0800700003D085C1F894FFCF15
:10007800109264001092650010926600109267005A
:1000880018BA8AE087BB65D186B381708093760001
:100098001092770012C02FEF39EC88E021503040E1
:1000A8008040E1F700C0000086B38170809376003D
:1000B8001092770088B38D7F88BB55D18F35910515
:1000C80054F38091760090917700019721F388ECA2
:1000D8009FEAA0E0B0E08093640090936500A0934D
:1000E8006600B093670080EC95E6A2E5B0E08093E7
:1000F800600090936100A0936200B093630088EC65
:100108009FEA90937B0080937A0015C188B3809111
:100118006C0090916D00A0916E00B0916F000197F6
:10012800A109B10980936C0090936D00A0936E00B3
:10013800B0936F00409168005091690060916A0027
:1001480070916B0041505109610971094093680031
:100158005093690060936A0070936B00452B462B9F
:10016800472B69F5409174005091750050937300C6
:100178004093720026B3207130E0309375002093CD
:1001880074000F2EF2E3CF2ED12CE12CF12CF02DA0
:10019800C0926800D0926900E0926A00F0926B0009
:1001A800452B69F42031310551F4209170003091CC
:1001B80071002F5F3F4F3093710020937000892B9F
:1001C8008A2B8B2B91F580E895EFA0E2B0E0809325
:1001D8006C0090936D00A0936E00B0936F008091B7
:1001E80070009091710089359B4140F01092710028
:1001F8001092700088B3826088BB17C088B38D7F67
:1002080088BB3FEF87EF94E221E031508040904077
:100218002040D9F700C00000C39B03C088B38260A8
:1002280088BB10927100109270009DD09093790055
:10023800809378008136910508F474C086B3817084
:10024800C82F30E0D32FD0937700C0937600219742
:10025800F1F588EC9FEAA0E0B0E080936400909309
:100268006500A0936600B09367008091600090914C
:100278006100A0916200B0916300883F954BA14551
:10028800B10518F488B3877F88BB8091600090918E
:100298006100A0916200B09163000097A105B105CB
:1002A80051F488EC9FEA90937B0080937A0088B39E
:1002B8008D7F88BB40C00197A109B1098093600078
:1002C80090936100A0936200B093630034C080EC07
:1002D80095E6A2E5B0E08093600090936100A0935A
:1002E8006200B09363008091640090916500A091D2
:1002F8006600B09167000097A105B10539F488B38D
:10030800886088BB88B3826088BB15C00197A10943
:10031800B1098093640090936500A0936600B09340
:10032800670009C080917A0090917B0001979093B3
:100338007B0080937A0080917A0090917B00892BD2
:1003480009F0E4CE88B3877F88BB88B38D7F88BBEC
:020358009BCE3A
:10035A0087B1816087B987B18F7D87B986B1866891
:04036A0086B90895B3
:10036E0086B1806486B93699FECF84B195B1089571
:0E037E00EC0107D005D0CE0105D0CE0104D091
:02038C0039CE68
:02038E000895D0
:020390000895CE
:020392000895CC
:020394006FDE1A
:040396003200000031
:04039A0080F52000CA
:02039E008813C2
:0203A000C8AFE4
:00000001FF
