:100000000FC039C138C137C136C135C134C133C160
:1000100032C131C10060006C80006C007000028051
:1000200011241FBECFE9CDBFE4E1F0E040E017C0EE
:10003000B591A59135912591059107FD0CC095913C
:100040008591EF01F92FE82F05900D92A217B307C4
:10005000D9F7FE0104C01D92A217B307E1F7E03201
:0C006000F40731F703D0F4C0F894FFCF90
:10006C0018BA8BE187BB2FEF3BE48DE12150304078
:10007C008040E1F700C00000ECD081E388BB9FEF2B
:10008C002BE43DE1915020403040E1F700C00000EE
:10009C0090E398BB9FEF2BE43DE191502040304022
:1000AC00E1F700C0000088BB0F2EF0EA7F2EF02D88
:1000BC000F2EF6E8CF2EF02DDD24D394E12C0F2E4D
:1000CC00F1E1FF2EF02D0F2EF2E15F2EF02D0F2E11
:1000DC00FAE16F2EF02D0F2EF8EE8F2EF3E09F2EFF
:1000EC00A12CB12CF02D072D1C2DDD2DCE2D01C0FA
:1000FC0018BAB5D04197E4F370926C00C0926D00C1
:10010C00D0926E00E0926F0078C080916800909160
:10011C006900A0916A00B0916B0080936400909389
:10012C006500A0936600B093670099D0092E000C6F
:10013C00AA0BBB0B8093680090936900A0936A0094
:10014C00B0936B004197A105B105DCF1809164007F
:10015C0090916500A0916600B09167004197A10550
:10016C00B1050CF44AC000936C0010936D00D09351
:10017C006E00C0936F008091600090916100A0911F
:10018C006200B09163000097A105B10571F4F8BA53
:10019C008091680090916900A0916A00B0916B0009
:1001AC004197A105B1054CF50CC00197A109B10906
:1001BC008093600090936100A0936200B093630001
:1001CC001CC080916C0090916D00A0916E00B0915C
:1001DC006F000197A109B10980936C0090936D0099
:1001EC00A0936E00B0936F008092600090926100BB
:1001FC00A0926200B092630058BA80916C0090910A
:10020C006D00A0916E00B0916F00181619061A06B9
:10021C001B060CF47ACF68BA8FEF95E32EE631E02B
:10022C008150904020403040D9F700C0000018BAEF
:10023C008FEF97E92AE3815090402040E1F700C00E
:04024C00000057CF88
:0E025000EC0113D011D0CE0111D0CE0110D090
:0C025E00389A3D9A86B1866886B90895EA
:0C026A00369A3699FECF85B190E00895D9
:02027600C4CEF4
:020278000895E7
:02027A000895E5
:02027C000895E3
:02027E00F4DEAC
:04028000A086010053
:00000001FF
